:020000040800F2
:1000000000800120291C0008251A00082B1A00086E
:10001000311A0008371A00083D1A000800000000D5
:10002000000000000000000000000000431A00086B
:10003000511A0008000000005F1A00086D1A00083D
:10004000791C0008791C0008791C0008791C00083C
:10005000791C0008791C0008791C0008791C00082C
:10006000791C0008791C0008791C0008791C00081C
:10007000791C0008791C0008791C0008791C00080C
:10008000791C0008791C0008791C00080000000099
:10009000000000000000000000000000791C0008C3
:1000A000791C0008791C0008791C0008791C0008DC
:1000B000791C0008791C0008791C0008791C0008CC
:1000C000791C0008791C0008791C0008791C0008BC
:1000D000791C0008791C0008791C00080000000049
:1000E000791C0008791C0008791C00080000000039
:1000F000000000000000000000000000791C000863
:1001000000000000791C0008791C0008791C000818
:1001100000000000000000000000000000000000DF
:10012000791C0008791C0008791C0008791C00085B
:10013000791C000800000000000000000000000022
:10014000000000000000000000000000791C000812
:10015000791C0008791C0008791C0008791C00082B
:10016000791C0008791C0008000000000000000055
:10017000000000000000000000000000000000007F
:1001800000000000791C00080000000000000000D2
:04019000791C0008CE
:1001A00010B5054C237833B9044B13B10448AFF3B1
:1001B00000800123237010BDC80200200000000051
:1001C000E459020808B5034B1BB103490348AFF3D8
:1001D000008008BD00000000CC020020E4590208A5
:1001E00010F8012B11F8013B012A28BF9A42F7D0E1
:1001F000D01A70470000000000000000000000005E
:1002000001F0FF01102A2BDB10F0070F08D010F8C7
:10021000013B013A8B422DD010F0070F42B3F6D1CB
:10022000F0B441EA012141EA014122F007047FF0E4
:1002300000070023F0E80256083C85EA010586EA3B
:10024000010685FA47F5A3FA87F586FA47F6A5FA77
:1002500087F68EB9EED1F0BC01F0FF0102F0070283
:1002600032B110F8013B013A83EA010313B1F8D12E
:100270000020704701387047002D06BF354603380F
:10028000073815F0010F07D1013015F4807F02BF48
:10029000013015F4C03F0130F0BC0138704700BF99
:1002A000034613F8012B002AFBD1181A01387047B6
:1002B00081F0004102E000BF83F0004330B54FEA17
:1002C00041044FEA430594EA050F08BF90EA020F84
:1002D0001FBF54EA000C55EA020C7FEA645C7FEA17
:1002E000655C00F0E2804FEA5454D4EB5555B8BF3A
:1002F0006D420CDD2C4480EA020281EA030382EAAB
:10030000000083EA010180EA020281EA0303362D3C
:1003100088BF30BD11F0004F4FEA01314FF4801C0F
:100320004CEA113102D0404261EB410113F0004F21
:100330004FEA03334CEA133302D0524263EB4303D8
:1003400094EA050F00F0A780A4F10104D5F1200E76
:100350000DDB02FA0EFC22FA05F2801841F10001D1
:1003600003FA0EF2801843FA05F359410EE0A5F1A5
:1003700020050EF1200E012A03FA0EFC28BF4CF0D6
:10038000020C43FA05F3C01851EBE37101F000458C
:1003900007D54FF0000EDCF1000C7EEB00006EEB99
:1003A0000101B1F5801F1BD3B1F5001F0CD3490823
:1003B0005FEA30004FEA3C0C04F101044FEA44527A
:1003C00012F5800F80F09A80BCF1004F08BF5FEA01
:1003D000500C50F1000041EB045141EA050130BDE1
:1003E0005FEA4C0C404141EB0101013C28BFB1F5F3
:1003F000801FE9D291F0000F04BF01460020B1FA3E
:1004000081F308BF2033A3F10B03B3F120020CDA10
:100410000C3208DD02F1140CC2F10C0201FA0CF0EE
:1004200021FA02F10CE002F11402D8BFC2F1200C53
:1004300001FA02F120FA0CFCDCBF41EA0C01904009
:10044000E41AA2BF01EB0451294330BD6FEA040452
:100450001F3C1CDA0C340EDC04F11404C4F120023D
:1004600020FA04F001FA02F340EA030021FA04F34F
:1004700045EA030130BDC4F10C04C4F1200220FAA6
:1004800002F001FA04F340EA0300294630BD21FAE4
:1004900004F0294630BD94F0000F83F4801306BFAA
:1004A00081F480110134013D4EE77FEA645C18BF9E
:1004B0007FEA655C29D094EA050F08BF90EA020F35
:1004C00005D054EA000C04BF1946104630BD91EA2D
:1004D000030F1EBF0021002030BD5FEA545C05D130
:1004E0004000494128BF41F0004130BD14F580046F
:1004F0003CBF01F5801130BD01F0004545F0FE41E3
:1005000041F470014FF0000030BD7FEA645C1ABF17
:10051000194610467FEA655C1CBF0B46024650EA4E
:10052000013406BF52EA033591EA030F41F400217A
:1005300030BD00BF90F0000F04BF0021704730B500
:100540004FF4806404F132044FF000054FF00001D5
:1005500050E700BF90F0000F04BF0021704730B596
:100560004FF4806404F1320410F0004548BF40426B
:100570004FF000013EE700BF42004FEAE2014FEAC0
:1005800031014FEA02701FBF12F07F4393F07F4F9B
:1005900081F06051704732F07F4208BF704793F09E
:1005A0007F4F04BF41F40021704730B54FF46074B1
:1005B00001F0004521F000411CE700BF50EA0102B4
:1005C00008BF704730B54FF000050AE050EA01025D
:1005D00008BF704730B511F0004502D5404261EBCD
:1005E00041014FF4806404F132045FEA915C3FF40E
:1005F000D8AE4FF003025FEADC0C18BF03325FEAAB
:10060000DC0C18BF033202EBDC02C2F1200300FA5B
:1006100003FC20FA02F001FA03FE40EA0E0021FA80
:1006200002F11444BDE600BF70B54FF0FF0C4CF46E
:10063000E06C1CEA11541DBF1CEA135594EA0C0F20
:1006400095EA0C0F00F0DEF82C4481EA030621EA5B
:100650004C5123EA4C5350EA013518BF52EA033596
:1006600041F4801143F4801338D0A0FB02CE4FF048
:100670000005E1FB02E506F00042E0FB03E54FF078
:100680000006E1FB03569CF0000F18BF4EF0010E70
:10069000A4F1FF04B6F5007F64F5407404D25FEA6C
:1006A0004E0E6D4146EB060642EAC62141EA55511F
:1006B0004FEAC52040EA5E504FEACE2EB4F1FD0C61
:1006C00088BFBCF5E06F1ED8BEF1004F08BF5FEADF
:1006D000500E50F1000041EB045170BD06F0004691
:1006E00046EA010140EA020081EA0301B4EB5C043E
:1006F000C2BFD4EB0C0541EA045170BD41F4801136
:100700004FF0000E013C00F3AB8014F1360FDEBF5A
:10071000002001F0004170BDC4F10004203C35DA36
:100720000C341BDC04F11404C4F1200500FA05F3B9
:1007300020FA04F001FA05F240EA020001F000425A
:1007400021F0004110EBD37021FA04F642EB0601D0
:100750005EEA430E08BF20EAD37070BDC4F10C04FA
:10076000C4F1200500FA04F320FA05F001FA04F2BE
:1007700040EA020001F0004110EBD37041F10001AA
:100780005EEA430E08BF20EAD37070BDC4F12005B5
:1007900000FA05F24EEA020E20FA04F301FA05F21D
:1007A00043EA020321FA04F001F0004121FA04F2C5
:1007B00020EA020000EBD3705EEA430E08BF20EA95
:1007C000D37070BD94F0000F0FD101F000464000CF
:1007D00041EB010111F4801F08BF013CF7D041EA51
:1007E000060195F0000F18BF704703F00046520055
:1007F00043EB030313F4801F08BF013DF7D043EA26
:100800000603704794EA0C0F0CEA135518BF95EADB
:100810000C0F0CD050EA410618BF52EA4306D1D162
:1008200081EA030101F000414FF0000070BD50EA81
:10083000410606BF1046194652EA430619D094EA0B
:100840000C0F02D150EA013613D195EA0C0F05D1F5
:1008500052EA03361CBF104619460AD181EA030149
:1008600001F0004141F0FE4141F470014FF0000001
:1008700070BD41F0FE4141F4780170BD70B54FF09C
:10088000FF0C4CF4E06C1CEA11541DBF1CEA13551C
:1008900094EA0C0F95EA0C0F00F0A7F8A4EB0504FE
:1008A00081EA030E52EA03354FEA013100F08880F5
:1008B0004FEA03334FF0805545EA131343EA1263BE
:1008C0004FEA022245EA111545EA10654FEA002673
:1008D0000EF000419D4208BF964244F1FD0404F52C
:1008E000407402D25B084FEA3202B61A65EB030588
:1008F0005B084FEA32024FF480104FF4002CB6EB45
:10090000020E75EB030E22BFB61A754640EA0C00C4
:100910005B084FEA3202B6EB020E75EB030E22BF04
:10092000B61A754640EA5C005B084FEA3202B6EB45
:10093000020E75EB030E22BFB61A754640EA9C0004
:100940005B084FEA3202B6EB020E75EB030E22BFD4
:10095000B61A754640EADC0055EA060E18D04FEA92
:10096000051545EA16754FEA06164FEAC30343EA32
:1009700052734FEAC2025FEA1C1CC0D111F4801FFF
:100980000BD141EA00014FF000004FF0004CB6E7F8
:1009900011F4801F04BF01430020B4F1FD0C88BF97
:1009A000BCF5E06F3FF6AFAEB5EB030C04BFB6EBA2
:1009B000020C5FEA500C50F1000041EB045170BD95
:1009C0000EF0004E4EEA113114EB5C04C2BFD4EBC2
:1009D0000C0541EA045170BD41F480114FF0000E46
:1009E000013C90E645EA060E8DE60CEA135594EAC2
:1009F0000C0F08BF95EA0C0F3FF43BAF94EA0C0FC5
:100A00000AD150EA01347FF434AF95EA0C0F7FF439
:100A100025AF104619462CE795EA0C0F06D152EA8D
:100A200003353FF4FDAE1046194622E750EA410671
:100A300018BF52EA43067FF4C5AE50EA41047FF482
:100A40000DAF52EA43057FF4EBAE12E74FF0FF3CE7
:100A500006E000BF4FF0010C02E000BF4FF0010CB8
:100A60004DF804CD4FEA410C7FEA6C5C4FEA430C31
:100A700018BF7FEA6C5C1BD001B050EA410C0CBF80
:100A800052EA430C91EA030F02BF90EA020F0020E2
:100A9000704710F1000F91EA030F58BF994208BF49
:100AA00090422CBFD8176FEAE37040F00100704706
:100AB0004FEA410C7FEA6C5C02D150EA013C07D15D
:100AC0004FEA430C7FEA6C5CD6D152EA033CD3D0A8
:100AD0005DF8040B704700BF8446104662468C46A2
:100AE0001946634600E000BF01B5FFF7B7FF0028D5
:100AF00048BF10F1000F01BD4DF808EDFFF7F4FFFE
:100B00000CBF012000205DF808FB00BF4DF808ED88
:100B1000FFF7EAFF34BF012000205DF808FB00BFAB
:100B20004DF808EDFFF7E0FF94BF012000205DF8CD
:100B300008FB00BF4DF808EDFFF7CEFF94BF012082
:100B400000205DF808FB00BF4DF808EDFFF7C4FF7B
:100B500034BF012000205DF808FB00BF4FEA410CC4
:100B60007FEA6C5C02D150EA013C0AD14FEA430CA7
:100B70007FEA6C5C02D152EA033C02D14FF00000E4
:100B800070474FF0010070474FEA410212F5001222
:100B900015D211D56FF47873B3EB625212D94FEAC4
:100BA000C12343F0004343EA505311F0004F23FAAE
:100BB00002F018BF404270474FF00000704750EA03
:100BC000013005D111F0004008BF6FF000407047C0
:100BD0004FF00000704700BF4A0011D212F500121A
:100BE00011D20DD56FF47873B3EB62520ED44FEA85
:100BF000C12343F0004343EA505323FA02F0704705
:100C00004FF00000704750EA013002D14FF0FF3042
:100C100070474FF0000070474FEA4102B2F1E043E5
:100C200024BFB3F5001CDCF1FE5C0DD901F0004CD3
:100C30004FEAC0024CEA5070B2F1004F40EB830023
:100C400008BF20F00100704711F0804F21D113F14F
:100C50003872BCBF01F00040704741F480114FEA88
:100C60005252C2F11802C2F1200C10FA0CF320FA11
:100C700002F018BF40F001004FEAC1234FEAD3232E
:100C800003FA0CFC40EA0C0023FA02F34FEA430398
:100C9000CCE77FEA625307D150EA01331EBF4FF021
:100CA000FE4040F44000704701F0004040F0FE403C
:100CB00040F40000704700BF53B94AB9002908BF8B
:100CC00000281CBF4FF0FF314FF0FF3000F0A6B9F5
:100CD000ADF1080C6DE904CE00F03CF8DDF804E05D
:100CE000DDE9022304B0704738B500220023044632
:100CF0000D46FFF70BFF28B920462946BDE83840CE
:100D000000F00AB8204605F1004100F005F8404225
:100D100061EB410138BD00BFD0B50C4B0022064647
:100D20000F46FFF781FCFFF757FF0446FFF702FC71
:100D3000074B0022FFF778FC02460B463046394647
:100D4000FFF7BAFAFFF748FF2146D0BD0000F03D9B
:100D50000000F0412DE9F047089E0D4604460F467D
:100D6000002B4AD18A42944665D9B2FA82F343B144
:100D700002FA03FCC3F120029F4020FA02F217435B
:100D80009C404FEA1C4E1FFA8CF5B7FBFEF1220C7B
:100D90000EFB117742EA074201FB05F090420AD9A7
:100DA0001CEB020201F1FF3780F01C81904240F2FF
:100DB000198102396244121AA4B2B2FBFEF00EFB92
:100DC000102244EA024400FB05F5A5420AD91CEBB7
:100DD000040400F1FF3280F00781A54240F2048153
:100DE0006444023840EA0140641B00211EB1DC402B
:100DF0000023C6E90043BDE8F0878B4208D9002EE6
:100E000000F0ED800021C6E900050846BDE8F08746
:100E1000B3FA83F1002949D1AB4202D3824200F2F6
:100E2000F880841A65EB030201201746002EE2D0F9
:100E3000C6E90047DFE702B9FFDEB2FA82F3002B12
:100E400040F090808A1A4FEA1C471FFA8CFE01215D
:100E5000B2FBF7F507FB1520220C42EA00420EFB1D
:100E600005F0904208D91CEB020205F1FF3802D2CE
:100E7000904200F2CB804546121AA4B2B2FBF7F0C2
:100E800007FB102244EA02440EFB00FEA64508D9E7
:100E90001CEB040400F1FF3202D2A64500F2BB8035
:100EA0001046A4EB0E0440EA05409FE7C1F120077D
:100EB0008B4022FA07FC4CEA030C05FA01F420FAF5
:100EC00007F3FD404FEA1C492343B5FBF9F81FFA2D
:100ED0008CFE09FB18551C0C44EA054408FB0EF572
:100EE000A54202FA01F200FA01F00BD91CEB04044E
:100EF00008F1FF3A80F08880A54240F28580A8F191
:100F000002086444641B9DB2B4FBF9F309FB13446B
:100F100045EA044403FB0EFEA64508D91CEB040475
:100F200003F1FF356CD2A6456AD9023B644443EA1B
:100F30000843A3FB0295A4EB0E04AC42C846AE46A0
:100F400056D353D056B1B0EB080264EB0E0404FA4A
:100F500007F7CA40CC401743C6E900741846002181
:100F6000BDE8F087C3F1200102FA03FC20FA01F288
:100F700025FA01F19D402A434FEA1C471FFA8CFED7
:100F8000B1FBF7F007FB1015110C41EA054100FB1E
:100F90000EF58D4204FA03F408D91CEB010100F1AF
:100FA000FF382FD28D422DD902386144491B92B2AD
:100FB000B1FBF7F507FB151142EA014205FB0EF103
:100FC000914208D91CEB020205F1FF3816D291427A
:100FD00014D9023D6244521A45EA004138E73146CD
:100FE000304608E73946E6E61046FBE64845A9D212
:100FF000B9EB020865EB0C0E013BA3E74546EAE7B7
:101000002B4694E74046D1E7D0467BE7023D624459
:1010100032E708460AE76444023842E7704700BFF7
:1010200080B582B000AF78607B6808330D49184600
:1010300000F0F6F9002202210B4801F037F90122F5
:101040000421094801F032F900220821064801F084
:101050002DF901221021044801F028F900BF0837BA
:10106000BD4680BD005A02080000024080B582B033
:1010700000AF78607B6808330349184600F0D0F968
:1010800000BF0837BD4680BD185A020880B582B03F
:1010900000AF7860054A7B681A607B68184600F0EC
:1010A0007BF97B6818460837BD4680BD745A020834
:1010B00080B582B000AF78607868FFF7E7FF0C2159
:1010C000786802F095FF7B6818460837BD4680BDFA
:1010D00080B582B000AF786039607B68012B07D1A2
:1010E0003B684FF6FF72934202D1094802F0BCFF01
:1010F0007B68002B07D13B684FF6FF72934202D109
:10110000034803F0E5F800BF0837BD4680BD00BFC7
:10111000E402002080B500AF4FF6FF710120FFF719
:10112000D7FF80BD80B500AF4FF6FF710020FFF7FD
:10113000CFFF80BD80B582B000AF78607B68083398
:101140000D49184600F06CF9012202210B4801F00C
:10115000ADF800220421094801F0A8F8002210216E
:10116000064801F0A3F801220821044801F09EF886
:1011700000BF0837BD4680BD305A0208000002405B
:1011800080B582B000AF78607B68083303491846A9
:1011900000F046F900BF0837BD4680BD485A020836
:1011A00080B582B000AF7860054A7B681A607B68C2
:1011B000184600F0F1F87B6818460837BD4680BD38
:1011C0008C5A020880B582B000AF78607868FFF76B
:1011D000E7FF0C21786802F00BFF7B6818460837A0
:1011E000BD4680BD80B582B000AF786039607B6855
:1011F000012B07D13B684FF6FF72934202D1094899
:1012000002F032FF7B68002B07D13B684FF6FF727C
:10121000934202D1034803F05BF800BF0837BD4694
:1012200080BD00BFE802002080B500AF4FF6FF711F
:101230000120FFF7D7FF80BD80B500AF4FF6FF71EB
:101240000020FFF7CFFF80BD80B582B000AF78608F
:10125000064A7B681A607B680833184600F0B0F8CD
:101260007B6818460837BD4680BD00BFA45A0208F7
:1012700080B582B000AF78607B681846FFF7E4FF66
:10128000034A7B681A607B6818460837BD4680BDF4
:10129000745A020880B582B000AF78607B68184647
:1012A000FFF7D2FF034A7B681A607B68184608374D
:1012B000BD4680BD8C5A020880B582B000AF786010
:1012C0007B681846FFF7D4FF7B680C331846FFF79E
:1012D000E1FF7B6803F10C027B685A607A687B68E7
:1012E0001A617B6803F10C027B689A617B6818467F
:1012F0000837BD4680BD80B582B000AF78607B689E
:101300009A697B689B691B680C331B681046984779
:101310007B689B695A687B689A617B689A697B687D
:101320009B691B6808331B681046984700BF083745
:10133000BD4680BD80B582B000AF786039607B6803
:10134000012B07D13B684FF6FF72934202D1094847
:1013500002F08AFE7B68002B07D13B684FF6FF72D4
:10136000934202D1034802F0B3FF00BF0837BD46E5
:1013700080BD00BFEC02002080B500AF4FF6FF71CA
:101380000120FFF7D7FF80BD80B500AF4FF6FF719A
:101390000020FFF7CFFF80BD80B582B000AF78603E
:1013A000064A7B681A607B680833184600F018F814
:1013B0007B6818460837BD4680BD00BFA45A0208A6
:1013C00080B483B000AF7860044A7B681A607B68A1
:1013D00018460C37BD465DF8047B7047BC5A0208BE
:1013E00080B483B000AF7860044A7B681A607B6881
:1013F00018460C37BD465DF8047B7047BC5A02089E
:1014000080B582B000AF78607868FFF7E9FF04210B
:10141000786802F0EDFD7B6818460837BD4680BD50
:1014200080B582B000AF786039603868FEF738FF69
:1014300003469AB24FF0FF333968034802F063FA6B
:1014400000BF0837BD4680BD3C03002080B500AF1B
:1014500000F014FC00F024F800F078F900F08AF8AD
:1014600000F046F90C210B4801F03AFC80210A48B3
:1014700000F004FF0346002B0CBF01230023DBB266
:10148000002B02D00548FFF736FF642000F068FC0F
:10149000ECE700BFF40200200000024080030020BF
:1014A00080B594B000AF07F1200330220021184628
:1014B0001EF048F907F10C0300221A605A609A6086
:1014C000DA601A610023BB60284B1B6C274A43F08B
:1014D00080531364254B1B6C03F08053BB60BB68C7
:1014E00000237B60224B1B6823F44043204A43F4D3
:1014F000004313601E4B1B6803F440437B607B6812
:1015000002233B620123FB6210233B630023BB6386
:1015100007F12003184600F0E3FE0346002B14BF3A
:1015200001230023DBB2002B01D000F05DF90F2373
:10153000FB6000233B6180237B610023BB610023B0
:10154000FB6107F10C030021184601F041F9034645
:10155000002B14BF01230023DBB2002B01D000F0CD
:1015600043F900BF5037BD4680BD00BF0038024080
:101570000070004080B596B000AF07F1480300222C
:101580001A605A609A60DA6007F1400300221A601C
:101590005A6007F1240300221A605A609A60DA60E8
:1015A0001A615A619A613B1D2022002118461EF0E3
:1015B000C9F84D4B4D4A1A604B4B50225A604A4B6A
:1015C00000229A60484B4FF47A72DA60464B002250
:1015D0001A61454B00225A61434B00229A614248EE
:1015E00001F0D6FA0346002B14BF01230023DBB21F
:1015F000002B01D000F0F8F84FF48053BB6407F1E2
:1016000048031946384801F0DDFC0346002B14BF9F
:1016100001230023DBB2002B01D000F0E5F83248B3
:1016200001F005FB0346002B14BF01230023DBB2AE
:10163000002B01D000F0D8F800233B6400237B642A
:1016400007F140031946284802F050F80346002BE2
:1016500014BF01230023DBB2002B01D000F0C4F83B
:1016600060237B624FF4FA73BB620023FB620023AA
:101670007B630023BB630023FB6307F124030C227D
:101680001946194801F0DCFB0346002B14BF012367
:101690000023DBB2002B01D000F0A6F800237B6012
:1016A0000023BB600023FB6000233B6100237B61C0
:1016B0004FF40053BB6100233B623B1D19460A48AF
:1016C00002F082F80346002B14BF01230023DBB293
:1016D000002B01D000F088F8034800F021F900BF8A
:1016E0005837BD4680BD00BFF40200200000014015
:1016F00080B500AF134B144A1A60124B4FF41652C8
:101700005A60104B00229A600E4B0022DA600D4B9B
:1017100000221A610B4B0C225A610A4B00229A617B
:10172000084B0022DA61074802F0A0F80346002BBC
:1017300014BF01230023DBB2002B01D000F054F8CA
:1017400000BF80BD3C0300200044004080B588B04D
:1017500000AF07F10C0300221A605A609A60DA6049
:101760001A610023BB601E4B1B6B1D4A43F008032C
:1017700013631B4B1B6B03F00803BB60BB680023A8
:101780007B60174B1B6B164A43F001031363144B2A
:101790001B6B03F001037B607B680022062111486C
:1017A00000F084FD1E23FB6001233B6100237B616D
:1017B0000023BB6107F10C0319460A4800F0DAFB6D
:1017C0002023FB6000233B6101237B6107F10C03B5
:1017D0001946044800F0CEFB00BF2037BD4680BD4F
:1017E000003802400000024080B400AF72B600BF73
:1017F000FEE780B582B000AF78607B680C33184696
:10180000FFF7CEFC7B681846FFF740FC7B68184664
:101810000837BD4680BD000080B582B000AF78605B
:1018200039607B68012B0AD13B684FF6FF72934207
:1018300005D10C4802F018FC0B48FFF73DFD7B6812
:10184000002B0AD13B684FF6FF72934205D1064840
:10185000FFF7CFFF034802F03BFD00BF0837BD464E
:1018600080BD00BFF00200208003002080B500AFE3
:101870004FF6FF710120FFF7CFFF80BD80B500AFAD
:101880004FF6FF710020FFF7C7FF80BD80B483B023
:1018900000AF00237B60104B5B6C0F4A43F4804326
:1018A00053640D4B5B6C03F480437B607B680023C7
:1018B0003B60094B1B6C084A43F080531364064B92
:1018C0001B6C03F080533B603B6800BF0C37BD4688
:1018D0005DF8047B704700BF0038024080B485B0DB
:1018E00000AF78607B681B680B4A93420DD10023E0
:1018F000FB600A4B5B6C094A43F001035364074BDE
:101900005B6C03F00103FB60FB6800BF1437BD464E
:101910005DF8047B704700BF0000014000380240C2
:1019200080B588B000AF786007F10C0300221A6020
:101930005A609A60DA601A617B681B68124A9342A7
:101940001ED10023BB60114B1B6B104A43F00103F7
:1019500013630E4B1B6B03F00103BB60BB684FF4BA
:101960000063FB6002233B6100237B610023BB61BA
:101970000123FB6107F10C031946054800F0FAFA50
:1019800000BF2037BD4680BD000001400038024046
:101990000000024080B58AB000AF786007F1140300
:1019A00000221A605A609A60DA601A617B681B68CC
:1019B000194A93422BD100233B61184B1B6C174AE9
:1019C00043F400331364154B1B6C03F400333B6189
:1019D0003B690023FB60114B1B6B104A43F008036B
:1019E00013630E4B1B6B03F00803FB60FB68602363
:1019F0007B610223BB610023FB6103233B6207235E
:101A00007B6207F114031946054800F0B3FA00BFE2
:101A10002837BD4680BD00BF00440040003802406A
:101A2000000C024080B400AFFEE780B400AFFEE7D8
:101A300080B400AFFEE780B400AFFEE780B400AF33
:101A4000FEE780B400AF00BFBD465DF8047B704781
:101A500080B400AF00BFBD465DF8047B704780B422
:101A600000AF00BFBD465DF8047B704780B500AF96
:101A700000F056F900BF80BD80B400AF01231846C6
:101A8000BD465DF8047B704780B582B000AF7860DA
:101A900039601FF015FE034616221A604FF0FF331F
:101AA00018460837BD4680BD80B582B000AF78606B
:101AB0004FF0FF317868FFF7E7FFFEE780B586B0AB
:101AC00000AFF860B9607A6000237B610AE0AFF391
:101AD00000800146BB685A1CBA60CAB21A707B69A2
:101AE00001337B617A697B689A42F0DB7B68184638
:101AF0001837BD4680BD80B586B000AFF860B960CC
:101B00007A6000237B6109E0BB685A1CBA601B78CD
:101B10001846AFF300807B6901337B617A697B688B
:101B20009A42F1DB7B6818461837BD4680BD80B409
:101B300083B000AF78604FF0FF3318460C37BD46D6
:101B40005DF8047B704780B483B000AF7860396083
:101B50003B684FF400525A60002318460C37BD46CC
:101B60005DF8047B704780B483B000AF78600123D8
:101B700018460C37BD465DF8047B704780B485B0CD
:101B800000AFF860B9607A60002318461437BD468C
:101B90005DF8047B7047000080B586B000AF7860C8
:101BA000144A154BD31A7B617B693B61134B1B684D
:101BB000002B02D1114B124A1A60104B1A687B6835
:101BC00013443A699A4207D21FF07AFD03460C2269
:101BD0001A604FF0FF3309E0084B1B68FB60074BAE
:101BE0001A687B681344054A1360FB681846183767
:101BF000BD4680BD0080012000040000A00300203D
:101C0000581B002080B400AF064BD3F88830054A3B
:101C100043F47003C2F8883000BFBD465DF8047B12
:101C2000704700BF00ED00E0DFF834D00D480E49EA
:101C30000E4A002302E0D458C4500433C4188C4226
:101C4000F9D30B4A0B4C002301E013600432A2428B
:101C5000FBD3FFF7D7FF1FF039FDFFF7F7FB704706
:101C60000080012000000020C80200207CA20208A1
:101C7000C8020020541B0020FEE7000080B500AF22
:101C80000E4B1B680D4A43F4007313600B4B1B682B
:101C90000A4A43F480631360084B1B68074A43F405
:101CA00080731360032000F031F90F2000F008F872
:101CB000FFF7ECFD0023184680BD00BF003C02404A
:101CC00080B582B000AF7860124B1A68124B1B7857
:101CD00019464FF47A73B3FBF1F3B2FBF3F31846F2
:101CE00000F03BF90346002B01D001230EE07B6896
:101CF0000F2B0AD8002279684FF0FF3000F011F95D
:101D0000064A7B681360002300E001231846083769
:101D1000BD4680BD08000020100000200C000020FF
:101D200080B400AF064B1B781A46064B1B68134461
:101D3000044A136000BFBD465DF8047B704700BFD6
:101D400010000020A403002080B400AF034B1B68E8
:101D50001846BD465DF8047B704700BFA403002011
:101D600080B584B000AF7860FFF7EEFFB8607B68A5
:101D7000FB60FB68B3F1FF3F05D00A4B1B781A46A6
:101D8000FB681344FB6000BFFFF7DEFF0246BB6841
:101D9000D31AFA689A42F7D800BF00BF1037BD4681
:101DA00080BD00BF1000002080B485B000AF786017
:101DB0007B6803F00703FB600C4BDB68BB60BA6811
:101DC0004FF6FF031340BB60FB681A02BB68134366
:101DD00043F0BF6343F40033BB60044ABB68D36085
:101DE00000BF1437BD465DF8047B704700ED00E08E
:101DF00080B400AF044BDB681B0A03F007031846EE
:101E0000BD465DF8047B704700ED00E080B483B010
:101E100000AF03463960FB7197F90730002B0ADBEE
:101E20003B68DAB20C4997F907301201D2B20B4481
:101E300083F800230AE03B68DAB20849FB7903F033
:101E40000F03043B1201D2B20B441A7600BF0C37C9
:101E5000BD465DF8047B704700E100E000ED00E066
:101E600080B489B000AFF860B9607A60FB6803F0B5
:101E70000703FB61FB69C3F10703042B28BF04239D
:101E8000BB61FB690433062B02D9FB69033B00E00D
:101E900000237B614FF0FF32BB6902FA03F3DA43A0
:101EA000BB681A407B699A404FF0FF317B6901FAA9
:101EB00003F3D9437B680B40134318462437BD46D0
:101EC0005DF8047B7047000080B582B000AF786099
:101ED0007B68013BB3F1807F01D301230FE00A4A05
:101EE0007B68013B53600F214FF0FF30FFF78EFFFF
:101EF000054B00229A60044B07221A600023184603
:101F00000837BD4680BD00BF10E000E080B582B05C
:101F100000AF78607868FFF747FF00BF0837BD461D
:101F200080BD80B586B000AF0346B9607A60FB73B0
:101F300000237B61FFF75CFF78617A68B968786994
:101F4000FFF78EFF024697F90F3011461846FFF74C
:101F50005DFF00BF1837BD4680BD80B582B000AFC1
:101F600078607868FFF7B0FF034618460837BD462B
:101F700080BD000080B489B000AF78603960002374
:101F80007B6100233B610023BB610023FB6159E1BE
:101F90000122FB6902FA03F37B613B681B687A69E3
:101FA00013403B613A697B699A4240F048813B6843
:101FB0005B6803F00303012B05D03B685B6803F00B
:101FC0000303022B30D17B689B68BB61FB695B001C
:101FD000032202FA03F3DB43BA691340BB613B6897
:101FE000DA68FB695B0002FA03F3BA691343BB6169
:101FF0007B68BA699A607B685B68BB610122FB6998
:1020000002FA03F3DB43BA691340BB613B685B68C8
:102010001B0903F00102FB6902FA03F3BA691343D7
:10202000BB617B68BA695A603B685B6803F0030375
:10203000032B17D07B68DB68BB61FB695B00032265
:1020400002FA03F3DB43BA691340BB613B689A6849
:10205000FB695B0002FA03F3BA691343BB617B6857
:10206000BA69DA603B685B6803F00303022B23D193
:10207000FB69DA087B68083253F82230BB61FB69E0
:1020800003F007039B000F2202FA03F3DB43BA6954
:102090001340BB613B681A69FB6903F007039B00AF
:1020A00002FA03F3BA691343BB61FB69DA087B6880
:1020B0000832B96943F822107B681B68BB61FB6971
:1020C0005B00032202FA03F3DB43BA691340BB61EE
:1020D0003B685B6803F00302FB695B0002FA03F3F1
:1020E000BA691343BB617B68BA691A603B685B6875
:1020F00003F44033002B00F0A2800023FB60574B19
:102100005B6C564A43F480435364544B5B6C03F45A
:102110008043FB60FB68524AFB699B08023352F81C
:102120002330BB61FB6903F003039B000F2202FA1B
:1021300003F3DB43BA691340BB617B68494A9342AE
:1021400019D07B68484A934213D07B68474A934230
:102150000DD07B68464A934207D07B68454A93423C
:1021600001D1042308E0072306E0032304E002234F
:1021700002E0012300E00023FA6902F0030292006A
:102180009340BA691343BB613549FB699B0802332D
:10219000BA6941F82320384B9B68BB613B69DB433C
:1021A000BA691340BB613B685B6803F48013002B82
:1021B00003D0BA693B691343BB612F4ABB69936083
:1021C0002D4BDB68BB613B69DB43BA691340BB61E4
:1021D0003B685B6803F40013002B03D0BA693B69CA
:1021E0001343BB61244ABB69D360234B5B68BB616B
:1021F0003B69DB43BA691340BB613B685B6803F42E
:102200000033002B03D0BA693B691343BB611A4A00
:10221000BB695360184B1B68BB613B69DB43BA6900
:102220001340BB613B685B6803F48033002B03D031
:10223000BA693B691343BB610F4ABB691360FB6911
:102240000133FB61FB690F2B7FF6A2AE00BF00BF1D
:102250002437BD465DF8047B704700BF003802405C
:102260000038014000000240000402400008024023
:10227000000C024000100240003C014080B485B0D8
:1022800000AF78600B467B807B681A697B881340BF
:10229000002B02D00123FB7301E00023FB73FB7BC7
:1022A00018461437BD465DF8047B704780B483B090
:1022B00000AF78600B467B8013467B707B78002BE9
:1022C00003D07A887B689A6103E07B881A047B6874
:1022D0009A6100BF0C37BD465DF8047B7047000073
:1022E00080B586B000AF78607B68002B01D10123F8
:1022F00067E27B681B6803F00103002B75D0884BF5
:102300009B6803F00C03042B0CD0854B9B6803F0F7
:102310000C03082B12D1824B5B6803F48003B3F5E6
:10232000800F0BD17E4B1B6803F40033002B5BD076
:102330007B685B68002B57D1012342E27B685B68B6
:10234000B3F5803F06D1764B1B68754A43F4803362
:1023500013601DE07B685B68B3F5A02F0CD1704B58
:102360001B686F4A43F4802313606D4B1B686C4AF3
:1023700043F4803313600BE0694B1B68684A23F415
:1023800080331360664B1B68654A23F48023136017
:102390007B685B68002B13D0FFF7D6FC386108E040
:1023A000FFF7D2FC02463B69D31A642B01D9032301
:1023B00007E25B4B1B6803F40033002BF0D014E002
:1023C000FFF7C2FC386108E0FFF7BEFC02463B693C
:1023D000D31A642B01D90323F3E1514B1B6803F497
:1023E0000033002BF0D100E000BF7B681B6803F0D6
:1023F0000203002B63D04A4B9B6803F00C03002BB5
:102400000BD0474B9B6803F00C03082B1CD1444BAB
:102410005B6803F48003002B16D1414B1B6803F06B
:102420000203002B05D07B68DB68012B01D0012360
:10243000C7E13B4B1B6823F0F8027B681B69DB009C
:10244000374913430B603AE07B68DB68002B20D0F0
:10245000344B01221A60FFF777FC386108E0FFF780
:1024600073FC02463B69D31A022B01D90323A8E16E
:102470002B4B1B6803F00203002BF0D0284B1B688A
:1024800023F0F8027B681B69DB00254913430B60CE
:1024900015E0244B00221A60FFF756FC386108E073
:1024A000FFF752FC02463B69D31A022B01D90323E2
:1024B00087E11B4B1B6803F00203002BF0D17B6804
:1024C0001B6803F00803002B36D07B685B69002B88
:1024D00016D0154B01221A60FFF736FC386108E070
:1024E000FFF732FC02463B69D31A022B01D90323C2
:1024F00067E10B4B5B6F03F00203002BF0D01BE096
:10250000094B00221A60FFF71FFC38610EE0FFF74D
:102510001BFC02463B69D31A022B07D9032350E167
:102520000038024000004742800E4742884B5B6FF4
:1025300003F00203002BEAD17B681B6803F004035D
:10254000002B00F097800023FB75814B1B6C03F080
:102550008053002B0FD10023BB607D4B1B6C7C4A4A
:1025600043F0805313647A4B1B6C03F08053BB60C1
:10257000BB680123FB75774B1B6803F48073002B4A
:1025800018D1744B1B68734A43F480731360FFF7D0
:10259000DBFB386108E0FFF7D7FB02463B69D31A43
:1025A000022B01D903230CE16A4B1B6803F48073EF
:1025B000002BF0D07B689B68012B06D1644B1B6F0E
:1025C000634A43F0010313671CE07B689B68052B9B
:1025D0000CD15F4B1B6F5E4A43F0040313675C4BE7
:1025E0001B6F5B4A43F0010313670BE0584B1B6FF3
:1025F000574A23F001031367554B1B6F544A23F0CE
:10260000040313677B689B68002B15D0FFF79CFBC6
:1026100038610AE0FFF798FB02463B69D31A41F2A2
:102620008832934201D90323CBE0494B1B6F03F05F
:102630000203002BEED014E0FFF786FB38610AE0BE
:10264000FFF782FB02463B69D31A41F2883293427C
:1026500001D90323B5E03E4B1B6F03F00203002BAF
:10266000EED1FB7D012B05D1394B1B6C384A23F091
:10267000805313647B689B69002B00F0A180344B6E
:102680009B6803F00C03082B5CD07B689B69022BD2
:1026900041D1314B00221A60FFF756FB386108E048
:1026A000FFF752FB02463B69D31A022B01D90323E1
:1026B00087E0274B1B6803F00073002BF0D17B6889
:1026C000DA697B681B6A1A437B685B6A9B011A4361
:1026D0007B689B6A5B08013B1B041A437B68DB6ACF
:1026E0001B061B4913434B601B4B01221A60FFF76B
:1026F0002BFB386108E0FFF727FB02463B69D31A42
:10270000022B01D903235CE0114B1B6803F000731B
:10271000002BF0D054E0104B00221A60FFF714FB9E
:10272000386108E0FFF710FB02463B69D31A022B21
:1027300001D9032345E0064B1B6803F00073002B0F
:10274000F0D13DE07B689B69012B07D1012338E084
:102750000038024000700040600047421B4B5B683D
:10276000FB607B689B69012B28D0FB6803F4800227
:102770007B68DB699A4221D1FB6803F03F027B68EA
:102780001B6A9A421AD1FA6847F6C07313407A68F6
:10279000526A9201934211D1FB6803F440327B6884
:1027A0009B6A5B08013B1B049A4207D1FB6803F05C
:1027B00070627B68DB6A1B069A4201D0012300E04D
:1027C000002318461837BD4680BD00BF00380240C0
:1027D00080B584B000AF786039607B68002B01D190
:1027E0000123CCE0684B1B6803F007033A689A4268
:1027F0000CD9654B3A68D2B21A70634B1B6803F070
:1028000007033A689A4201D00123B8E07B681B684D
:1028100003F00203002B20D07B681B6803F0040345
:10282000002B05D0594B9B68584A43F4E053936002
:102830007B681B6803F00803002B05D0534B9B6893
:10284000524A43F460439360504B9B6823F0F0027C
:102850007B689B684D4913438B607B681B6803F062
:102860000103002B44D07B685B68012B07D1474BE9
:102870001B6803F40033002B19D101237FE07B6830
:102880005B68022B03D07B685B68032B07D13F4B4F
:102890001B6803F00073002B09D101236FE03B4B51
:1028A0001B6803F00203002B01D1012367E0374BC3
:1028B0009B6823F003027B685B68344913438B6099
:1028C000FFF742FAF8600AE0FFF73EFA0246FB68BB
:1028D000D31A41F28832934201D903234FE02B4BA4
:1028E0009B6803F00C027B685B689B009A42EBD10B
:1028F000254B1B6803F007033A689A420CD2224B1F
:102900003A68D2B21A70204B1B6803F007033A688A
:102910009A4201D0012332E07B681B6803F0040374
:10292000002B08D0194B9B6823F4E0527B68DB68CE
:10293000164913438B607B681B6803F00803002B68
:1029400009D0124B9B6823F460427B681B69DB0053
:102950000E4913438B6000F021F802460B4B9B6835
:102960001B0903F00F030A49CB5C22FA03F3094A5F
:102970001360094B1B681846FFF7A2F9002318469D
:102980001037BD4680BD00BF003C02400038024009
:10299000C45A0208080000200C0000202DE9B04FA6
:1029A00090B000AF00237B630023FB6300233B63F5
:1029B0000023BB63594B9B6803F00C03082B0DD01D
:1029C000082B00F2A180002B02D0042B03D09BE047
:1029D000534BBB639BE0534BBB6398E04F4B5B682F
:1029E00003F03F037B634D4B5B6803F48003002BD4
:1029F00028D04A4B5B689B0900223B627A623B6AA3
:102A0000C3F308000021474B03FB01F2002300FB46
:102A100003F31344434AA0FB0212FA620A46BA6265
:102A2000FA6A1344FB627B6B0022BB61FA61D7E94F
:102A30000623D7E90A01FEF73FF902460B46134683
:102A4000FB6353E0354B5B689B0900223B617A6175
:102A50003B69C3F3080A4FF0000B52465B464FF048
:102A600000004FF00001590141EAD26150010246D5
:102A70000B46B2EB0A0863EB0B094FF000024FF074
:102A800000034FEA891343EA98634FEA8812B2EBD6
:102A9000080463EB09054FF000024FF00003EB0060
:102AA00043EA5473E20014461D4614EB0A033B60EC
:102AB00045EB0B037B604FF000024FF00003D7E9BA
:102AC000004529468B02214643EA915321468A025A
:102AD000104619467B6B0022BB60FA60D7E90223DF
:102AE000FEF7EAF802460B461346FB630B4B5B68A6
:102AF0001B0C03F0030301335B003B63FA6B3B6B7E
:102B0000B2FBF3F3BB6302E0054BBB6300BFBB6BDF
:102B100018464037BD46BDE8B08F00BF00380240C0
:102B20000024F40040787D0180B400AF034B1B68A3
:102B30001846BD465DF8047B704700BF08000020C2
:102B400080B500AFFFF7F0FF0246054B9B689B0A7C
:102B500003F007030349CB5C22FA03F3184680BD58
:102B600000380240D45A020880B500AFFFF7DCFFFE
:102B70000246054B9B685B0B03F007030349CB5CE4
:102B800022FA03F3184680BD00380240D45A0208E6
:102B900080B582B000AF78607B68002B01D1012343
:102BA00041E07B6893F83D30DBB2002B06D17B68B7
:102BB000002283F83C207868FEF790FE7B680222B2
:102BC00083F83D207B681A687B68043319461046F9
:102BD00000F0C0FA7B68012283F846207B6801225E
:102BE00083F83E207B68012283F83F207B68012226
:102BF00083F840207B68012283F841207B68012212
:102C000083F842207B68012283F843207B680122FD
:102C100083F844207B68012283F845207B680122E9
:102C200083F83D20002318460837BD4680BD80B597
:102C300082B000AF78607B68002B01D1012341E0B6
:102C40007B6893F83D30DBB2002B06D17B68002215
:102C500083F83C20786800F039F87B68022283F81A
:102C60003D207B681A687B6804331946104600F0E3
:102C700071FA7B68012283F846207B68012283F881
:102C80003E207B68012283F83F207B68012283F885
:102C900040207B68012283F841207B68012283F871
:102CA00042207B68012283F843207B68012283F85D
:102CB00044207B68012283F845207B68012283F849
:102CC0003D20002318460837BD4680BD80B483B040
:102CD00000AF786000BF0C37BD465DF8047B7047DD
:102CE00080B584B000AF786039603B68002B09D1B3
:102CF0007B6893F83E30DBB2012B14BF0123002325
:102D0000DBB222E03B68042B09D17B6893F83F30AB
:102D1000DBB2012B14BF01230023DBB215E03B68BB
:102D2000082B09D17B6893F84030DBB2012B14BF2C
:102D300001230023DBB208E07B6893F84130DBB26B
:102D4000012B14BF01230023DBB2002B01D0012390
:102D500068E03B68002B04D17B68022283F83E20A8
:102D600013E03B68042B04D17B68022283F83F20E8
:102D70000BE03B68082B04D17B68022283F84020DB
:102D800003E07B68022283F841207B681B680122F4
:102D90003968184600F084FC7B681B68234A93421C
:102DA00007D17B681B685A6C7B681B6842F4004241
:102DB0005A647B681B681D4A934218D07B681B6865
:102DC000B3F1804F13D07B681B68194A93420ED031
:102DD0007B681B68174A934209D07B681B68164AB8
:102DE000934204D07B681B68144A934211D17B68DC
:102DF0001B689B6803F00703FB60FB68062B10D081
:102E00007B681B681A687B681B6842F001021A60C5
:102E100007E07B681B681A687B681B6842F0010248
:102E20001A60002318461037BD4680BD00000140DF
:102E30000004004000080040000C00400040014039
:102E400080B586B000AFF860B9607A600023FB758A
:102E5000FB6893F83C30012B01D10223AEE0FB6804
:102E6000012283F83C207B680C2B00F29F8001A29A
:102E700052F823F0A92E0008AD2F0008AD2F00084E
:102E8000AD2F0008E92E0008AD2F0008AD2F000877
:102E9000AD2F00082B2F0008AD2F0008AD2F000824
:102EA000AD2F00086B2F0008FB681B68B968184637
:102EB00000F0D0F9FB681B689A69FB681B6842F058
:102EC00008029A61FB681B689A69FB681B6822F01C
:102ED00004029A61FB681B689969BB681A69FB6800
:102EE0001B680A439A6164E0FB681B68B96818466E
:102EF00000F016FAFB681B689A69FB681B6842F4CD
:102F000000629A61FB681B689A69FB681B6822F47F
:102F100080629A61FB681B689969BB681B691A0229
:102F2000FB681B680A439A6143E0FB681B68B96849
:102F3000184600F061FAFB681B68DA69FB681B68D9
:102F400042F00802DA61FB681B68DA69FB681B68FB
:102F500022F00402DA61FB681B68D969BB681A6950
:102F6000FB681B680A43DA6123E0FB681B68B968E9
:102F7000184600F0ABFAFB681B68DA69FB681B684F
:102F800042F40062DA61FB681B68DA69FB681B685F
:102F900022F48062DA61FB681B68D969BB681B692F
:102FA0001A02FB681B680A43DA6102E00123FB7521
:102FB00000BFFB68002283F83C20FB7D18461837D1
:102FC000BD4680BD80B584B000AF78603960002315
:102FD000FB737B6893F83C30012B01D10223B4E0F2
:102FE0007B68012283F83C207B68022283F83D2025
:102FF0007B681B689B68BB60BB6823F07703BB6082
:10300000BB6823F47F43BB607B681B68BA689A6027
:103010003B681B68B3F5005F3ED0B3F5005F00F27C
:103020008780B3F5805F00F08680B3F5805F7FD83E
:10303000702B1AD0702B7BD8602B50D0602B77D898
:10304000502B3CD0502B73D8402B58D0402B6FD8EE
:10305000302B64D0302B6BD8202B60D0202B67D83E
:10306000002B5CD0102B5AD062E07B6818683B685C
:1030700099683B685A683B68DB6800F0F1FA7B6846
:103080001B689B68BB60BB6843F07703BB607B68D1
:103090001B68BA689A604FE07B6818683B6899685B
:1030A0003B685A683B68DB6800F0DAFA7B681B68AB
:1030B0009A687B681B6842F480429A603CE07B68B7
:1030C00018683B6859683B68DB681A4600F04EFA9E
:1030D0007B681B685021184600F0A7FA2CE07B683B
:1030E00018683B6859683B68DB681A4600F06DFA5F
:1030F0007B681B686021184600F097FA1CE07B682B
:1031000018683B6859683B68DB681A4600F02EFA7D
:103110007B681B684021184600F087FA0CE07B684A
:103120001A683B681B681946104600F07EFA03E0F7
:103130000123FB7300E000BF7B68012283F83D2080
:103140007B68002283F83C20FB7B18461037BD4685
:1031500080BD000080B485B000AF786039607B68C6
:103160001B68FB607B68344A93420FD07B68B3F1E5
:10317000804F0BD07B68314A934207D07B68304A3E
:10318000934203D07B682F4A934208D1FB6823F017
:103190007003FB603B685B68FA681343FB607B6805
:1031A000254A93421BD07B68B3F1804F17D07B68D0
:1031B000224A934213D07B68214A93420FD07B6806
:1031C000204A93420BD07B681F4A934207D07B680A
:1031D0001E4A934203D07B681D4A934208D1FB6884
:1031E00023F44073FB603B68DB68FA681343FB60C1
:1031F000FB6823F080023B685B691343FB607B68DC
:10320000FA681A603B689A687B68DA623B681A68F9
:103210007B689A627B68084A934203D13B681A69CB
:103220007B681A637B6801225A6100BF1437BD4670
:103230005DF8047B704700BF0000014000040040BF
:1032400000080040000C00400040014000440140E4
:103250000048014080B487B000AF786039607B6877
:103260001B6A23F001027B681A627B681B6A7B6120
:103270007B685B683B617B689B69FB60FB6823F054
:103280007003FB60FB6823F00303FB603B681B6873
:10329000FA681343FB607B6923F002037B613B68A0
:1032A0009B687A6913437B617B681C4A93420CD10B
:1032B0007B6923F008037B613B68DB687A69134311
:1032C0007B617B6923F004037B617B68134A934233
:1032D00011D13B6923F480733B613B6923F4007394
:1032E0003B613B685B693A6913433B613B689B699F
:1032F0003A6913433B617B683A695A607B68FA68B4
:103300009A613B685A687B685A637B687A691A627B
:1033100000BF1C37BD465DF8047B704700000140CC
:1033200080B487B000AF786039607B681B6A23F097
:1033300010027B681A627B681B6A7B617B685B6832
:103340003B617B689B69FB60FB6823F4E043FB60A7
:10335000FB6823F44073FB603B681B681B02FA6840
:103360001343FB607B6923F020037B613B689B6810
:103370001B017A6913437B617B681E4A93420DD11E
:103380007B6923F080037B613B68DB681B017A6902
:1033900013437B617B6923F040037B617B68154AA3
:1033A000934213D13B6923F480633B613B6923F46F
:1033B00000633B613B685B699B003A6913433B6177
:1033C0003B689B699B003A6913433B617B683A69A0
:1033D0005A607B68FA689A613B685A687B689A63AE
:1033E0007B687A691A6200BF1C37BD465DF8047BB2
:1033F000704700BF0000014080B487B000AF786024
:1034000039607B681B6A23F480727B681A627B6870
:103410001B6A7B617B685B683B617B68DB69FB6087
:10342000FB6823F07003FB60FB6823F00303FB6081
:103430003B681B68FA681343FB607B6923F40073E5
:103440007B613B689B681B027A6913437B617B68E5
:103450001D4A93420DD17B6923F400637B613B6875
:10346000DB681B027A6913437B617B6923F4806309
:103470007B617B68144A934213D13B6923F48053E8
:103480003B613B6923F400533B613B685B691B0173
:103490003A6913433B613B689B691B013A691343DB
:1034A0003B617B683A695A607B68FA68DA613B681D
:1034B0005A687B68DA637B687A691A6200BF1C37D6
:1034C000BD465DF8047B70470000014080B487B0C2
:1034D00000AF786039607B681B6A23F480527B6898
:1034E0001A627B681B6A3B617B685B687B617B68F7
:1034F000DB69FB60FB6823F4E043FB60FB6823F4BB
:103500004073FB603B681B681B02FA681343FB6057
:103510003B6923F400533B613B689B681B033A699A
:1035200013433B617B68104A934209D17B6923F4C2
:1035300080437B613B685B699B017A6913437B61D4
:103540007B687A695A607B68FA68DA613B685A6816
:103550007B681A647B683A691A6200BF1C37BD46F3
:103560005DF8047B704700BF0000014080B487B065
:1035700000AFF860B9607A60FB681B6A7B61FB682A
:103580001B6A23F00102FB681A62FB689B693B61BE
:103590003B6923F0F0033B617B681B013A691343ED
:1035A0003B617B6923F00A037B617A69BB68134343
:1035B0007B61FB683A699A61FB687A691A6200BFAD
:1035C0001C37BD465DF8047B704780B487B000AF00
:1035D000F860B9607A60FB681B6A23F01002FB6830
:1035E0001A62FB689B697B61FB681B6A3B617B69B4
:1035F00023F470437B617B681B037A6913437B610F
:103600003B6923F0A0033B61BB681B013A6913438C
:103610003B61FB687A699A61FB683A691A6200BF8C
:103620001C37BD465DF8047B704780B485B000AFA1
:10363000786039607B689B68FB60FB6823F07003EF
:10364000FB603A68FB68134343F00703FB607B6849
:10365000FA689A6000BF1437BD465DF8047B704776
:1036600080B487B000AFF860B9607A603B60FB68F7
:103670009B687B617B6923F47F437B613B681A0213
:103680007B681A43BB6813437A6913437B61FB6809
:103690007A699A6000BF1C37BD465DF8047B7047AD
:1036A00080B487B000AFF860B9607A60BB6803F09F
:1036B0001F03012202FA03F37B61FB681A6A7B692C
:1036C000DB431A40FB681A62FB681A6ABB6803F0A6
:1036D0001F03796801FA03F31A43FB681A6200BFFB
:1036E0001C37BD465DF8047B7047000080B485B090
:1036F00000AF786039607B6893F83C30012B01D1D2
:10370000022350E07B68012283F83C207B68022280
:1037100083F83D207B681B685B68FB607B681B68E7
:103720009B68BB60FB6823F07003FB603B681B6811
:10373000FA681343FB607B681B68FA685A607B6811
:103740001B681C4A934218D07B681B68B3F1804FFA
:1037500013D07B681B68184A93420ED07B681B68A5
:10376000164A934209D07B681B68154A934204D0DD
:103770007B681B68134A93420CD1BB6823F080031B
:10378000BB603B685B68BA681343BB607B681B68BF
:10379000BA689A607B68012283F83D207B6800222A
:1037A00083F83C20002318461437BD465DF8047B9F
:1037B000704700BF000001400004004000080040C6
:1037C000000C00400040014080B485B000AF78603C
:1037D00039600023FB607B6893F83C30012B01D1FA
:1037E00002233DE07B68012283F83C20FB6823F044
:1037F000FF023B68DB681343FB60FB6823F4407205
:103800003B689B681343FB60FB6823F480623B6862
:103810005B681343FB60FB6823F400623B681B6832
:103820001343FB60FB6823F480523B681B6913431E
:10383000FB60FB6823F400523B685B691343FB6049
:10384000FB6823F480423B68DB691343FB607B68C1
:103850001B68FA685A647B68002283F83C200023C6
:1038600018461437BD465DF8047B704780B582B0BA
:1038700000AF78607B68002B01D101233FE07B68BB
:1038800093F83D30DBB2002B06D17B68002283F831
:103890003C207868FEF77EF87B68242283F83D2080
:1038A0007B681B68DA687B681B6822F40052DA6068
:1038B000786800F029F97B681B681A697B681B68C7
:1038C00022F490421A617B681B685A697B681B6806
:1038D00022F02A025A617B681B68DA687B681B68E1
:1038E00042F40052DA607B6800221A647B6820226E
:1038F00083F83D207B68202283F83E200023184671
:103900000837BD4680BD80B58AB002AFF860B960A7
:103910003B601346FB8000237B61FB6893F83D30DE
:10392000DBB2202B7CD1BB68002B02D0FB88002BA4
:1039300001D1012375E0FB6893F83C30012B01D1E4
:1039400002236EE0FB68012283F83C20FB68002222
:103950001A64FB68212283F83D20FEF7F5F97861AF
:10396000FB68FA889A84FB68FA88DA84FB689B68AB
:10397000B3F5805F08D1FB681B69002B04D10023DD
:10398000FB61BB68BB6103E0BB68FB610023BB61FB
:10399000FB68002283F83C202AE03B6800937B69A7
:1039A00000228021F86800F040F80346002B01D087
:1039B000032336E0FB69002B0BD1BB691B881A4639
:1039C000FB681B68C2F308025A60BB690233BB6123
:1039D00007E0FB691A78FB681B685A60FB690133D2
:1039E000FB61FB68DB8C9BB2013B9AB2FB68DA841B
:1039F000FB68DB8C9BB2002BCFD13B6800937B69CB
:103A000000224021F86800F010F80346002B01D096
:103A1000032306E0FB68202283F83D20002300E01A
:103A2000022318462037BD4680BD80B590B000AF58
:103A3000F860B9603B601346FB7150E0BB6CB3F1BA
:103A4000FF3F4CD0BB6C002B07D0FEF77DF9024640
:103A50003B68D31ABA6C9A4241D2FB681B680C339C
:103A6000BB62BB6A53E8003F7B627B6A23F4D0737E
:103A7000FB63FB681B680C33FA6B7A633B63396B3F
:103A80007A6B41E80023FB62FB6A002BE5D1FB68FF
:103A90001B6814337B617B6953E8003F3B613B69E2
:103AA00023F00103BB63FB681B681433BA6B3A62F3
:103AB000FB61F9693A6A41E80023BB61BB69002BED
:103AC000E5D1FB68202283F83D20FB68202283F8A3
:103AD0003E20FB68002283F83C2003230FE0FB68B4
:103AE0001B681A68BB681340BA689A420CBF01236E
:103AF0000023DBB21A46FB799A429FD00023184676
:103B00004037BD4680BD00002DE9B04FC0B000AFCA
:103B1000C7F8F400D7F8F4301B681B6923F4405051
:103B2000D7F8F430D968D7F8F4301A6840EA0103BE
:103B30001361D7F8F4309A68D7F8F4301B691A4348
:103B4000D7F8F4305B691A43D7F8F430DB691343D4
:103B5000C7F8F830D7F8F4301B68DB6823F4164157
:103B600021F00C01D7F8F4301A68D7F8F8300B437D
:103B7000D360D7F8F4301B685B6923F44070D7F842
:103B8000F4309969D7F8F4301A6840EA01035361B8
:103B9000D7F8F4301A688F4B9A4205D0D7F8F43032
:103BA0001A688D4B9A4204D1FEF7DEFFC7F8FC007D
:103BB00003E0FEF7C5FFC7F8FC00D7F8F430DB6977
:103BC000B3F5004F40F00C81D7F8FC300022C7F865
:103BD000E830C7F8EC20D7E93A4522462B46911841
:103BE000B9655B41FB65D7E91623214612EB010855
:103BF000294643EB01094FF000024FF000034FEA62
:103C0000C90343EA58734FEAC802904699462346CF
:103C100018EB0303C7F8E0302B4649EB0303C7F862
:103C2000E430D7F8F4305B680022C7F8D830C7F822
:103C3000DC20D7E936120B46DB183B65134642EB16
:103C400003037B65D7E91423D7E93801FDF734F87E
:103C500002460B46614BA3FB02235B091C01D7F80C
:103C6000FC300022C7F8D030C7F8D420D7E9348917
:103C700042464B469118B9645B41FB64D7E9122375
:103C8000414612EB010A494643EB010B4FF000029B
:103C90004FF000034FEACB0343EA5A734FEACA02DC
:103CA00092469B4643461AEB0303C7F8C8304B467F
:103CB0004BEB0303C7F8CC30D7F8F4305B68002235
:103CC000C7F8C030C7F8C420D7E930120B46DB185C
:103CD0003B64134642EB03037B64D7E91023D7E927
:103CE0003201FCF7E9FF02460B4611463B4BA3FBB2
:103CF00001235B09642202FB03F3CB1ADB0003F10F
:103D00003202364BA3FB02235B095B0003F4F8731A
:103D10001C44D7F8FC300022C7F8B830C7F8BC20E4
:103D2000D7E92E8942464B469118B9635B41FB6344
:103D3000D7E90E2341465118396349464B417B630D
:103D40004FF000024FF00003D7E90CAB5946CB000F
:103D5000514643EA51735146CA001046194603467C
:103D600042469B18C7F8B0304B460A4642EB030365
:103D7000C7F8B430D7F8F4305B680022C7F8A83031
:103D8000C7F8AC20D7E92A120B46DB18BB621346F2
:103D900042EB0303FB62D7E90A23D7E92C01FCF7C6
:103DA0008BFF02460B460D4BA3FB02135B096421FC
:103DB00001FB03F3D31ADB003233084AA2FB0323CF
:103DC0005B0903F00702D7F8F4301B6822449A60BD
:103DD00006E100BF00100140001401401F85EB51B7
:103DE000D7F8FC300022C7F8A030C7F8A420D7E9E4
:103DF000288942464B46911839625B417B62D7E97C
:103E0000082341465418494643EB01054FF0000290
:103E10004FF00003EB0043EA5473E20014461D46E2
:103E20004346E318C7F898304B4645EB0303C7F801
:103E30009C30D7F8F4305B680022C7F89030C7F8A0
:103E400094204FF000024FF00003D7E924452946A3
:103E50008B00214643EA917321468A00D7E9260167
:103E6000FCF72AFF02460B46604BA3FB02235B09CB
:103E70001C01D7F8FC300022C7F88830C7F88C2026
:103E8000D7E9228942464B469118B9615B41FB61F3
:103E9000D7E9062341465118396149464B417B61B8
:103EA0004FF000024FF00003D7E904AB5946CB00B6
:103EB000514643EA51735146CA001046194603461B
:103EC00042469B18C7F880304B460A4642EB030334
:103ED000C7F88430D7F8F4305B680022BB67FA6714
:103EE0004FF000024FF00003D7E91E8949468B00CE
:103EF000414643EA917341468A00D7E92001FCF725
:103F0000DBFE02460B461146384BA3FB01235B093F
:103F1000642202FB03F3CB1A1B013233334AA2FBA8
:103F200003235B0903F0F0031C44D7F8FC300022A4
:103F30003B677A67D7E91C8942464B469118B960BE
:103F40005B41FB60D7E9022341465118396049467D
:103F50004B417B604FF000024FF00003D7E900AB0C
:103F60005946CB00514643EA51735146CA001046A8
:103F70001946034642469B18BB664B460A4642EB2F
:103F80000303FB66D7F8F4305B6800223B667A6671
:103F90004FF000024FF00003D7E9188949468B0023
:103FA000414643EA917341468A00D7E91A01FCF77A
:103FB00083FE02460B460D4BA3FB02135B096421F3
:103FC00001FB03F3D31A1B013233084AA2FB03237C
:103FD0005B0903F00F02D7F8F4301B6822449A60A3
:103FE00000BF07F58077BD46BDE8B08F1F85EB5158
:103FF00018F0D0B837B5051D0446284601910BF0DE
:10400000E7FD0023C4E91D33C4E92033C4E92233AA
:1040100084F87C30054B0199236028461433636093
:1040200003B0BDE830400BF0BCBD00BF708002089B
:1040300037B5051D0446284601910BF0C9FD002344
:10404000C4E91F33C4E921336367A4F87830054B12
:104050000199236028461433636003B0BDE8304003
:104060000BF054BD408002082DE9F04FDFF8449278
:104070002DED028BD9F80040631C08EE100A83B0C6
:10408000C9F80030002C40F0ED80DFF82CB2794BFD
:10409000794F7A4EDFF824A201221A70DBF8003043
:1040A000774A9D68BC61C7E90024C7E90244C7E9B3
:1040B000044407F11C0000F0ABFEDBF80010704A6E
:1040C0003D624FF0FF384D68C7F800A0C7F8248064
:1040D000C6E90024C6E90244C6E90444B46106F115
:1040E0001C0000F095FEC6E90858DBF80010654D8D
:1040F000634ACB68C6F800A0C5E90024C5E90244BC
:10410000C5E90444AC6105F11C00019300F080FE98
:10411000019BC5F800A0DFF8A8A1C5E90838394619
:104120005046FFF785FF584A10460BF051FD564A9E
:10413000564942F8081CA2F108071431B96031460B
:10414000534E1467C2E91E44C2E92044A2F87440E9
:1041500042F8044C10460BF0D9FC29463046FFF7D4
:1041600067FF29464B48FFF763FF3269DBF80030F1
:10417000C7F878A042F40052474F3261474A9D6821
:10418000C6F874A0C7E90024C7E90244C7E904449B
:10419000BC6107F11C0000F03BFE414EDBF8001053
:1041A0003E4ADFF820A1C7F800A0C7E9085806F189
:1041B0001C004D68B461C6E90024C6E90244C6E9A2
:1041C000044400F025FEDBF80010344AD1F80CB0AE
:1041D000C6F800A0C6E90858324DC5E90024C5E973
:1041E0000244C5E90444AC6105F11C0000F010FE76
:1041F000C5E908B8DFF8D0B0DFF8D080C5F800A076
:1042000039465846FFF7F6FE40460BF0E1FC264BD8
:1042100088F87840A8F10807C8E91C44C8E91F4499
:10422000C8E9214448F8083C48F8044C14331F4CB2
:10423000BB60314640460BF0B4FC29462046FFF7F0
:10424000D9FE1B482946FFF7D5FE2369C8F870B090
:1042500043F400532361D9F80030C4F874B001333B
:10426000C9F8003018EE100A03B0BDEC028BBDE8AF
:10427000F08F00BF11000020CC1400207C1400201F
:1042800058810208A414002074150020047A020842
:10429000FC15002088160020441500209881020893
:1042A000F41400201C150020347A02083418002071
:1042B000C4180020AC1300206802002040780208D7
:1042C000141700208078020854190020A817002035
:1042D0000D4A1368591E022B10B50446116011D106
:1042E0000A4811F0FCF90A4811F0F9F9094811F0EF
:1042F000F6F9094811F00FFA084811F00CFA0848CD
:1043000011F009FA204610BDAC130020141700204C
:10431000FC150020881600205419002034180020B5
:10432000C418002070474268511E012A416002D122
:1043300003685B6818477047044A0B68126803609B
:1043400093421EBF1A6801321A607047AC03002006
:104350000160704702490348002218F059BB00BFB2
:10436000DC5A0208B403002010B5034C23680BB9D3
:10437000FFF7F0FF206810BDB4030020004870472D
:10438000DC5A020838B543680446B3B96068B0B96E
:10439000E36813BBE06810BB23691BBB206958BBF3
:1043A000204638BD52F8250008B1FFF7BCFF0135A3
:1043B000D4E90123AB42F5D8E8E70025F8E717F088
:1043C000EBFEE5E752F8250008B1FFF7ACFF013539
:1043D000D4E90232AB42F5D8DCE70025F8E717F064
:1043E000DBFED9E700252369585908B117F0D4FE40
:1043F0000435182DF7D1D1E717F0CEFED0E70368CA
:104400005A1E012B10B50446026006D1FFF7BAFF11
:104410002046BDE8104017F0BDBE10BD054B10B5DD
:104420001B6804460068984201D0FFF7E8FF204669
:1044300010BD00BFAC0300200A4A38B50B680D461A
:1044400011688B4218BF1A68044600681CBF01320D
:104450001A60814201D0FFF7D2FF2B68236020460B
:1044600038BD00BFAC030020036823B9034A1368BA
:10447000013313600360006801387047B003002007
:104480002DE9F84F044617460846002A5BD0FFF78F
:10449000EBFFA368013B9842054645D900F10408AB
:1044A0006FF06043984534BF4FEA880B4FF0FF3BF5
:1044B0005846D4F8049017F0F6FEA268064600208D
:1044C000904242D1C0F104022A449200804538BF94
:1044D0000022002106EB80001BF034F95846D4F886
:1044E0000CA017F0E0FEA26883460020904233D172
:1044F000C0F104022A449200804538BF0022002106
:104500000BEB80001BF01EF9C4E90168C4F80CB085
:10451000B9F1000F02D0484617F03EFEBAF1000F85
:1045200002D0504617F038FE7B68666801337B6026
:1045300056F82530002B4CD146F8257000252E4624
:10454000A3689D4248D3BDE8F88F616851F82010F8
:1045500046F820100130B3E7E16851F820104BF81D
:1045600020100130C2E7D8F80400FFF77DFF854234
:104570000AD10846FFF778FF56F8203080461BB373
:10458000384602F073FF15E008F10808D8F800106B
:10459000D1B10846FFF768FF8542E4D1D8F804108E
:1045A0000846FFF761FF56F82030804663B1384671
:1045B00008F07AF8436801338146436056F82800D2
:1045C000FFF7B1FE46F8289056F82500FFF7ABFE3E
:1045D000B2E7DFF81C80D9E7E36853F8250020B183
:1045E000FFF7A1FEE36843F825600135A8E700BFA7
:1045F000FC5A02082DE9F041214F3B68BFF35B8F65
:10460000DB0706460C46154606D4384617F023FE4F
:1046100010B1384617F02BFE1A490F6817B94FF042
:10462000FF3308E03846FFF71FFFA84248680DD166
:10463000FFF71AFF0346F16851F8252092B1ECB15B
:10464000236820465B68BDE8F0411847FFF70CFF80
:10465000A84205D13846FFF707FF2B460546EAE793
:104660000831DAE76268501C6060581C18BF0232DB
:1046700041F825401CBF626041F82340BDE8F0814D
:10468000A8030020FC5A020810B5084C2368BFF3A9
:104690005B8FDB0708D4204617F0DDFD20B12046F4
:1046A000BDE8104017F0E3BD10BD00BFBC03002003
:1046B0002DE9F04F30238360C24B016087B006467E
:1046C000C022002118461BF03DF8BF4B7060C0228D
:1046D000184600211BF036F8BC4CBD4DF06014228A
:1046E0000021201D1BF02EF834612560FFF746FEE7
:1046F000B84C03882B80002201231146204604F089
:10470000A9FB22463046B449B44CDFF8C4A3DFF815
:10471000C4B3B34DDFF8C093DFF8C083FFF7B0FE3A
:10472000B04A0121104618F0D7F93046AD4AAE49DB
:10473000FFF7A6FEAD4AAE4B136001270023C2E986
:104740000233C2E90533C2E907331374938482F854
:10475000643057601146A74A67602260A160204616
:10476000194600F00FFF22463046A349A34CFFF73D
:1047700087FEA34AA349576011603046A249FFF75C
:104780007FFEA24AA249576011603046A149FFF757
:1047900077FEA14A67602260FFF7E6FD2246A0602F
:1047A0009E499F4C3046FFF76BFE9E4ACAF8002098
:1047B00000239D4A676019462260C4F808A01A4683
:1047C0002046CAE90233CAE90533CAE90733CAE910
:1047D0000933CAE90B33AAF810308AF81230CAF844
:1047E00034308AF84330CAF8047000F06FFB224678
:1047F00030468E498E4CFFF743FE8E4ACBF80020A0
:1048000000238D4A676019462260C4F808B01A4632
:104810002046CBE90233CBE90533CBE90733CBE9BB
:104820000933CBE90B33ABF810308BF81230CBF8EF
:1048300034308BF84330CBF8047000F003FB224691
:1048400030467E497E4CFFF71BFE7E4A7E4957600C
:10485000116030467D49FFF713FE7D4A7D49576060
:10486000116030467C49FFF70BFE00237B4A6F60E6
:10487000C5E90233C5E90433C5E90633C5E90833A0
:10488000C5E90A33C5E90C33C5E90E33C5E9103370
:10489000C5E91233C5E91433C5E91633C5E9183340
:1048A000C5E91A33C5E91C33C5E91E332A60294618
:1048B000C5E920333A46C5E92233C5E92433C5E9C1
:1048C0002633C5E92833C5E92A33C5E92C33C5E9C0
:1048D0002E33C5F8C03085F8C43020460BF0F6FD05
:1048E000224630465E495F4CFFF7CAFD5E4A5F498B
:1048F0005760116030465E49FFF7C2FD5D4A5E4970
:104900005760116030465D49FFF7BAFD5C4A394691
:10491000104605F059F83046594A5A49FFF7B0FD9C
:10492000594A3946104604F081FA3046564A5749EA
:10493000FFF7A6FD564A3946104618F0DDF8304616
:10494000534A5449FFF79CFD534B544A1A601A4688
:104950005F600023C2E90233C2E90533C2E90733CD
:1049600013745362936282F8243111464C4A676093
:104970002260A1602046194600F06CFE22463046B7
:104980004849494CFFF77CFD484A49495760116046
:1049900030464849FFF774FD474A4849576011605F
:1049A00030464749FFF76CFD464A67602260FFF7D3
:1049B000DBFC2246A0604449444C3046FFF760FDD2
:1049C0008EE000BF64110020741000205C100020F5
:1049D0004C0900205809002024130020E003002087
:1049E000540600203411002074140020C404002058
:1049F000045C0208586A0208581300204C11002079
:104A000024120020F47A02080C1400203412002032
:104A1000307B0208081400203C6A02084C13002076
:104A2000840400209C5B0208B06A02086013002026
:104A3000900400208C5B02087C6A02085C13002052
:104A40004804002028040020006B0208681300209E
:104A500038040020186B020864130020607B0208F1
:104A6000F0130020EC030020F8030020306B020854
:104A70005413002008040020607C0208EC1300207E
:104A8000C003002050130020780B002028130020C2
:104A900040110020781400202C050020145C02082E
:104AA0003075020898130020581100202C120020A5
:104AB000EC8202086C1400203C12002028830208BB
:104AC00068140020147502088C1300209C04002038
:104AD000E4070020280800206C080020DC080020E3
:104AE0008F4AC9F8002000238E4A67601946226069
:104AF000C4F808901A462046C9E90233C9E90533CB
:104B0000C9E90733C9E90933C9E90B33C9E90D33E9
:104B100089F81030C9F83C3089F86C30C9F8047055
:104B200000F094FA224630467F49804CFFF7A8FCFB
:104B30007F4AC8F8002000237E4A67601946226039
:104B4000C4F808801A462046C8E90233C8E905338C
:104B5000C8E90733C8E90933C8E90B33C8E90D339D
:104B600088F81030C8F83C3088F86C30C8F8047009
:104B700000F024FA224630466F49704CFFF780FC63
:104B80006F4A70495760116030466F49FFF778FCF3
:104B90006E4A6F495760116030466E49FFF770FCEE
:104BA00000236D4A6760C4E90233C4E90433C4E9F1
:104BB0000633C4E90833C4E90A33C4E90C33C4E951
:104BC0000E33C4E91033C4E91233C4E91433C4E921
:104BD0001633C4E91833C4E91A33C4E91C33C4E9F1
:104BE0001E332260C4E92033C4E92233C4E92433EC
:104BF000C4E92633C4E92833C4E92A33C4E92C3391
:104C0000C4E92E33C4F8C03084F8C430534B3A465C
:104C10002146184611F0E4FE504B51491A463046E1
:104C2000FFF72EFC4F4A504B5760136030464F49F8
:104C3000FFF726FC4E4A4F4B1360576030464E49F3
:104C4000FFF71EFC4D4A3946104608F023FE304659
:104C50004A4A4B49FFF714FC4A4A4B4B57601360D2
:104C600030464A49FFF70CFC494A4A4B57601360EB
:104C700030464949FFF704FC484A494B57601360E6
:104C800030464849FFF7FCFB474A484B57601360E2
:104C900030464749FFF7F4FB4649474BCDF808B08B
:104CA000CDE9031930466946CDE9003ACDF81480C4
:104CB00001F0E2FA4148F768FFF7D6FB3E4B47F8B0
:104CC00020303F48F768FFF7CFFB47F820A03D486A
:104CD000F768FFF7C9FB47F820B03B48F768FFF7D4
:104CE000C3FB47F820503948F568FFF7BDFB314951
:104CF00045F820100C48F568FFF7B6FB45F8209002
:104D00000D48F568FFF7B0FB45F820801448F568BA
:104D1000FFF7AAFB45F82040304607B0BDE8F08F0A
:104D2000BC5B020888750208A0130020A8040020BC
:104D3000AC5B0208547502089C1300201C0700207D
:104D400030040020D8750208A81300204004002079
:104D5000F0750208A4130020588302085C040020A8
:104D6000501400200004002008760208941300204C
:104D700010040020588402084C140020D0030020A6
:104D80009013002018040020545F020850120020E5
:104D900020040020FC5E020848120020B404002019
:104DA000285F02084C120020BC040020D05E0208DC
:104DB000441200202C050020C404002058130020B9
:104DC000601300205C130020F013002098130020D3
:104DD00010B5074C02212046FFF76AFC054B064838
:104DE0001C60064B21461C60BDE81040FFF7B0BABE
:104DF00070040020AC03002058100020B8030020ED
:104E0000024B1B680BB9FFF7E3BF7047AC030020F0
:104E100038B5002303600446084DFFF7F1FF084A48
:104E20002B6812682360934206D0FFF72DFC2B6895
:104E300023601A6801321A60204638BDB80300208A
:104E4000AC03002038B584680546ACB9442017F09F
:104E500019FA1A4B0482C0E90034C0E90244C0E9DF
:104E60000544C0E90744C0E90944C0E90B4484741F
:104E7000446380F84340A860AB6811492E225A74FD
:104E8000AB682C229A74AA680023C2E90513C2E910
:104E90000713C2E9091391600A49D36008681063D7
:104EA000D362AA685063084A1068AA68C15C1A44B1
:104EB00001330B2B82F83810F7D138BD8C5B020818
:104EC000139E0208D08B02081C00002038B58468AD
:104ED0000546ACB9442017F0D5F91A4B0482C0E955
:104EE0000034C0E90244C0E90544C0E90744C0E910
:104EF0000944C0E90B448474446380F84340A860CB
:104F0000AB6811492E225A74AB682C229A74AA6895
:104F10000023C2E90513C2E90713C2E9091391602E
:104F20000A49D36008681063D362AA685063084ACC
:104F30001068AA68C15C1A4401330B2B82F8381040
:104F4000F7D138BD9C5B0208139E0208D08B020883
:104F50001C000020064B10B504460360806810B1A9
:104F600003685B6898472046FFF7DCF9204610BDD0
:104F70007C6A020810B50446FFF7ECFF204617F0E4
:104F800009F9204610BD0000064B10B50446036029
:104F9000806810B103685B6898472046FFF7C2F944
:104FA000204610BDB06A020810B50446FFF7ECFFBA
:104FB000204617F0EFF8204610BD000038B5846891
:104FC0000546B4B9702017F05DF9C0E90244C0E9A4
:104FD0000544C0E90744C0E90944C0E90B44C0E9FD
:104FE0000D44154B446003600474C46380F86C4046
:104FF000A860AB682E212C22C3E905120F49104A84
:105000009A600022C3E90712C3E90912C3E90B122F
:10501000DA605A630B4A10689863AB68D8630A4B2E
:10502000AA681B683C32591E0A3311F8010F42F876
:10503000040F9942F9D138BDAC5B0208E8A0020820
:10504000139E0208D08B02081C00002038B584682B
:105050000546B4B9702017F015F9C0E90244C0E95B
:105060000544C0E90744C0E90944C0E90B44C0E96C
:105070000D44154B446003600474C46380F86C40B5
:10508000A860AB682E212C22C3E905120F49104AF3
:105090009A600022C3E90712C3E90912C3E90B129F
:1050A000DA605A630B4A10689863AB68D8630A4B9E
:1050B000AA681B683C32591E0A3311F8010F42F8E6
:1050C000040F9942F9D138BDBC5B0208E8A0020880
:1050D000139E0208D08B02081C000020064B10B55E
:1050E00004460360806810B103685B6898472046F7
:1050F000FFF718F9204610BD5475020810B5044694
:10510000FFF7ECFF204617F045F8204610BD0000E1
:10511000064B10B504460360806810B103685B68F5
:1051200098472046FFF7FEF8204610BD8875020814
:1051300010B50446FFF7ECFF204617F02BF8204689
:1051400010BD00000D4B10B5036090F843300446CD
:105150007BB1806808B117F01FF8606908B117F0DB
:105160001BF8E06908B117F017F8606A08B117F08A
:1051700013F82046FFF7D6F8204610BD8C5B0208D6
:1051800010B50446FFF7DEFF204617F003F820466F
:1051900010BD00000D4B10B5036090F8433004467D
:1051A0007BB1806808B116F0F7FF606908B116F0AE
:1051B000F3FFE06908B116F0EFFF606A08B116F07E
:1051C000EBFF2046FFF7AEF8204610BD9C5B0208BF
:1051D00010B50446FFF7DEFF204616F0DBFF204641
:1051E00010BD00000D4B10B5036090F86C30044604
:1051F0007BB1806808B116F0CFFFE06908B116F006
:10520000CBFF606A08B116F0C7FFE06A08B116F07C
:10521000C3FF2046FFF786F8204610BDAC5B0208AE
:1052200010B50446FFF7DEFF204616F0B3FF204618
:1052300010BD00000D4B10B5036090F86C300446B3
:105240007BB1806808B116F0A7FFE06908B116F0DD
:10525000A3FF606A08B116F09FFFE06A08B116F07C
:105260009BFF2046FFF75EF8204610BDBC5B02089E
:1052700010B50446FFF7DEFF204616F08BFF2046F0
:1052800010BD000038B584680546ACB9442016F05E
:10529000F9FF1A4B0482C0E90034C0E90244C0E9B6
:1052A0000544C0E90744C0E90944C0E90B448474DB
:1052B000446380F84340A860AB6811492E225A74B9
:1052C000AB682C229A74AA680023C2E90513C2E9CC
:1052D0000713C2E9091391600A49D3600868106393
:1052E000D362AA685063084A1068AA68C15C1A446D
:1052F00001330B2B82F83810F7D138BD8C5B0208D4
:10530000139E0208D08B02081C00002038B5846868
:105310000546ACB9442016F0B5FF1A4B0482C0E92B
:105320000034C0E90244C0E90544C0E90744C0E9CB
:105330000944C0E90B448474446380F84340A86086
:10534000AB6811492E225A74AB682C229A74AA6851
:105350000023C2E90513C2E90713C2E909139160EA
:105360000A49D36008681063D362AA685063084A88
:105370001068AA68C15C1A4401330B2B82F83810FC
:10538000F7D138BD9C5B0208139E0208D08B02083F
:105390001C000020064B10B504460360806810B165
:1053A00003685B6898472046FEF7BCFF204610BDA7
:1053B000807B020810B50446FFF7ECFF204616F08C
:1053C000E9FE204610BD0000064B10B50446036000
:1053D000806810B103685B6898472046FEF7A2FF1B
:1053E000204610BDB47B020810B50446FFF7ECFF61
:1053F000204616F0CFFE204610BD000038B5846868
:105400000546B4B9702016F03DFFC0E90244C0E97A
:105410000544C0E90744C0E90944C0E90B44C0E9B8
:105420000D44154B446003600474C46380F86C4001
:10543000A860AB682E212C22C3E905120F49104A3F
:105440009A600022C3E90712C3E90912C3E90B12EB
:10545000DA605A630B4A10689863AB68D8630A4BEA
:10546000AA681B683C32591E0A3311F8010F42F832
:10547000040F9942F9D138BDAC5B0208E8A00208DC
:10548000139E0208D08B02081C00002038B58468E7
:105490000546B4B9702016F0F5FEC0E90244C0E933
:1054A0000544C0E90744C0E90944C0E90B44C0E928
:1054B0000D44154B446003600474C46380F86C4071
:1054C000A860AB682E212C22C3E905120F49104AAF
:1054D0009A600022C3E90712C3E90912C3E90B125B
:1054E000DA605A630B4A10689863AB68D8630A4B5A
:1054F000AA681B683C32591E0A3311F8010F42F8A2
:10550000040F9942F9D138BDBC5B0208E8A002083B
:10551000139E0208D08B02081C000020064B10B519
:1055200004460360806810B103685B6898472046B2
:10553000FEF7F8FE204610BD7883020810B5044639
:10554000FFF7ECFF204616F025FE204610BD0000B8
:10555000064B10B504460360806810B103685B68B1
:1055600098472046FEF7DEFE204610BDAC830208B9
:1055700010B50446FFF7ECFF204616F00BFE204660
:1055800010BD000038B58468054684B9682016F05F
:1055900079FEC0E90244C0E90544C0E907441A4B5A
:1055A000446003600474848480F86440A860AA683E
:1055B000164B93602E21002382F82410D3601374BD
:1055C000AA682C2182F82510114A1068AA68C15CCB
:1055D0001A440133242B82F82610F7D10D4B18689A
:1055E0000023AA68C15C1A4401331A2B82F84A10BE
:1055F000F7D1AB68084A5A6104229A61074ADA6116
:1056000005221A6238BD00BF045C0208139E02081E
:105610001800002014000020C45B0208C95B0208C7
:10562000064B10B504460360806810B103685B68E0
:1056300098472046FEF776FE204610BD586A0208BD
:1056400010B50446FFF7ECFF204616F0A3FD2046F8
:1056500010BD000038B58468054694B94FF49470C5
:1056600016F010FEC0E90244C0E90544C0E9074451
:10567000C0E90944184B44600360047480F8244175
:10568000A860AB68154A9A600022DA601A7419465D
:105690002E225A622C2241F8282F114A1268501EDD
:1056A000233210F8014F41F8044F9042F9D10D4ACE
:1056B000126803F1B800511E193211F8014F40F879
:1056C000044F9142F9D1084A5A6104229A61074A6B
:1056D000DA6105221A6238BD145C0208139E0208C2
:1056E0001800002014000020D05B0208E45B0208D0
:1056F000064B10B504460360806810B103685B6810
:1057000098472046FEF70EFE204610BD3075020871
:1057100010B50446FFF7ECFF204616F03BFD20468F
:1057200010BD00000B4B10B5036090F864300446C8
:105730005BB1806808B116F02FFD606908B116F002
:105740002BFDE06908B116F027FD2046FEF7EAFDC3
:10575000204610BD045C020810B50446FFF7E2FFC6
:10576000204616F017FD204610BD00000B4B10B56B
:10577000036090F8243104465BB1806808B116F0EC
:105780000BFD606908B116F007FDE06908B116F07D
:1057900003FD2046FEF7C6FD204610BD145C02083E
:1057A00010B50446FFF7E2FF204616F0F3FC204652
:1057B00010BD000038B58468054684B9682016F02D
:1057C00061FDC0E90244C0E90544C0E907441A4B41
:1057D000446003600474848480F86440A860AA680C
:1057E000164B93602E21002382F82410D36013748B
:1057F000AA682C2182F82510114A1068AA68C15C99
:105800001A440133242B82F82610F7D10D4B186867
:105810000023AA68C15C1A4401331A2B82F84A108B
:10582000F7D1AB68084A5A6104229A61074ADA61E3
:1058300005221A6238BD00BF045C0208139E0208EC
:105840001800002014000020C45B0208C95B020895
:10585000064B10B504460360806810B103685B68AE
:1058600098472046FEF75EFD204610BDD07A02081C
:1058700010B50446FFF7ECFF204616F08BFC2046DF
:1058800010BD000038B58468054694B94FF4947093
:1058900016F0F8FCC0E90244C0E90544C0E9074439
:1058A000C0E90944184B44600360047480F8244143
:1058B000A860AB68154A9A600022DA601A7419462B
:1058C0002E225A622C2241F8282F114A1268501EAB
:1058D000233210F8014F41F8044F9042F9D10D4A9C
:1058E000126803F1B800511E193211F8014F40F847
:1058F000044F9142F9D1084A5A6104229A61074A39
:10590000DA6105221A6238BD145C0208139E02088F
:105910001800002014000020D05B0208E45B02089D
:10592000064B10B504460360806810B103685B68DD
:1059300098472046FEF7F6FC204610BDC8820208B4
:1059400010B50446FFF7ECFF204616F023FC204676
:1059500010BD009B03201A60704700207047002094
:10596000704704207047009B03201A607047F0B511
:105970000546D0E90020801A65D092F900401378DE
:10598000002C03DB01322A601846F0BDC12B3BD945
:10599000DF2B0FD8012856D0507800F0C004802C9F
:1059A00032D100EB8310A0F542508142EDD3023298
:1059B0002A60EAE7EF2B1AD8022844D9547804F079
:1059C000C000802820D1E02B01D19F2C1CD99078D9
:1059D00000F0C006802E17D1A40104EB0334044468
:1059E000A4F5622080388142CFD30332E0E7F42B64
:1059F0000AD8032827D9547804F0C000802803D19E
:105A0000F02B04D18F2C06D84FF0FF30BDE7F42BDC
:105A100001D18F2CF8D8967806F0C0008028F3D1F9
:105A2000D07800F0C007802FEED1240304EB83442C
:105A300004EB86140444A4F17270A0F5025088426D
:105A4000A3D80432B4E76FF001009EE7F0B5054635
:105A5000D0E90020801A65D092F900401378002C1C
:105A600003DB01322A601846F0BDC12B3BD9DF2B86
:105A70000FD8012856D0507800F0C004802C32D1C5
:105A800000EB8310A0F542508142EDD302322A6030
:105A9000EAE7EF2B1AD8022844D9547804F0C00062
:105AA000802820D1E02B01D19F2C1CD9907800F0C8
:105AB000C006802E17D1A40104EB03340444A4F5DE
:105AC000622080388142CFD30332E0E7F42B0AD83A
:105AD000032827D9547804F0C000802803D1F02B84
